Archive member included because of file (symbol)

/usr/local/bin/tools/bin/../lib/gcc/arm-none-eabi/4.5.1/../../../../arm-none-eabi/lib/armv6-m/libcr_c.a(memcpy.o)
                              ./build/engine.o (memcpy)
/usr/local/bin/tools/bin/../lib/gcc/arm-none-eabi/4.5.1/../../../../arm-none-eabi/lib/armv6-m/libcr_c.a(memset.o)
                              ./build/flash.o (memset)
/usr/local/bin/tools/bin/../lib/gcc/arm-none-eabi/4.5.1/armv6-m/libcr_eabihelpers.a(division.o)
                              ./build/maths.o (__aeabi_idiv)
/usr/local/bin/tools/bin/../lib/gcc/arm-none-eabi/4.5.1/armv6-m/libcr_eabihelpers.a(double.o)
                              ./build/stdio.o (__aeabi_dmul)
/usr/local/bin/tools/bin/../lib/gcc/arm-none-eabi/4.5.1/armv6-m/libcr_eabihelpers.a(float.o)
                              ./build/wavesculptor.o (__aeabi_f2d)
/usr/local/bin/tools/bin/../lib/gcc/arm-none-eabi/4.5.1/armv6-m/libcr_eabihelpers.a(llong.o)
                              ./build/utils.o (__aeabi_lmul)
/usr/local/bin/tools/bin/../lib/gcc/arm-none-eabi/4.5.1/armv6-m/libcr_eabihelpers.a(memcpy.o)
                              /usr/local/bin/tools/bin/../lib/gcc/arm-none-eabi/4.5.1/../../../../arm-none-eabi/lib/armv6-m/libcr_c.a(memcpy.o) (__aeabi_memcpy)
/usr/local/bin/tools/bin/../lib/gcc/arm-none-eabi/4.5.1/armv6-m/libcr_eabihelpers.a(thumb1_switch_helpers.o)
                              ./build/engine.o (__gnu_thumb1_case_uqi)

Allocating common symbols
Common symbol       size              file

I2CReadLength       0x4               ./build/i2c.o
I2CSlaveBuffer      0x40              ./build/i2c.o
heartbeat_timer     0x4               ./build/engine.o
tx_buf_start        0x1               ./build/can.o
CANRxDone           0x20              ./build/can.o
UARTBuffer          0x4               ./build/uart.o
wdt_counter         0x4               ./build/wdt.o
I2CMode             0x4               ./build/i2c.o
I2CMasterBuffer     0x40              ./build/i2c.o
user_std_msg_handler
                    0x4               ./build/engine.o
UARTStatus          0x4               ./build/uart.o
iap_entry           0x4               ./build/flash.o
recv_buf_used       0x20              ./build/can.o
timesync_offset     0x8               ./build/engine.o
CAN_rxbuf           0x380             ./build/can.o
I2CWriteLength      0x4               ./build/i2c.o
my_config           0x34              ./build/engine.o
tx_num_msgs         0x1               ./build/can.o
in_channels         0x30              ./build/engine.o
in_channel_handlers
                    0x10              ./build/engine.o
CAN_txbuf           0x100             ./build/can.o

Discarded input sections

 .data          0x00000000        0x0 ./build/switchcard.o
 .bss           0x00000000        0x0 ./build/switchcard.o
 .data          0x00000000        0x0 ./build/scandal_obligations.o
 .bss           0x00000000        0x0 ./build/scandal_obligations.o
 .data          0x00000000        0x0 ./build/engine.o
 .data          0x00000000        0x0 ./build/error.o
 .text          0x00000000       0x26 ./build/manager.o
 .data          0x00000000        0x0 ./build/manager.o
 .bss           0x00000000        0x0 ./build/manager.o
 .data          0x00000000        0x0 ./build/maths.o
 .bss           0x00000000        0x0 ./build/maths.o
 .data          0x00000000        0x0 ./build/message.o
 .bss           0x00000000        0x0 ./build/message.o
 .data          0x00000000        0x0 ./build/utils.o
 .bss           0x00000000        0x0 ./build/utils.o
 .data          0x00000000        0x0 ./build/stdio.o
 .bss           0x00000000        0x0 ./build/stdio.o
 .text          0x00000000       0x4c ./build/leds.o
Memory Configuration

Name             Origin             Length             Attributes
MFlash32         0x00000000         0x00006000         xr
RamLoc8          0x10000100         0x00001f00         xrw
*default*        0x00000000         0xffffffff

Linker script and memory map

LOAD /usr/local/bin/tools/bin/../lib/gcc/arm-none-eabi/4.5.1/../../../../arm-none-eabi/lib/armv6-m/libm.a
LOAD ./build/switchcard.o
LOAD ./build/scandal_obligations.o
LOAD ./build/engine.o
LOAD ./build/error.o
LOAD ./build/manager.o
LOAD ./build/maths.o
LOAD ./build/message.o
LOAD ./build/utils.o
LOAD ./build/stdio.o
LOAD ./build/leds.o
LOAD ./build/wavesculptor.o
LOAD ./build/can.o
LOAD ./build/flash.o
LOAD ./build/uart.o
LOAD ./build/gpio.o
LOAD ./build/timer.o
LOAD ./build/wdt.o
LOAD ./build/system.o
LOAD ./build/core_cm0.o
LOAD ./build/system_LPC11xx.o
LOAD ./build/i2c.o
LOAD ./build/ssp.o
LOAD ./build/cr_startup_lpc11.o
START GROUP
LOAD /usr/local/bin/tools/bin/../lib/gcc/arm-none-eabi/4.5.1/../../../../arm-none-eabi/lib/armv6-m/libcr_c.a
LOAD /usr/local/bin/tools/bin/../lib/gcc/arm-none-eabi/4.5.1/../../../../arm-none-eabi/lib/armv6-m/libcr_semihost.a
LOAD /usr/local/bin/tools/bin/../lib/gcc/arm-none-eabi/4.5.1/armv6-m/libcr_eabihelpers.a
END GROUP
                0x00006000                __top_MFlash32 = 0x6000
                0x10002000                __top_RamLoc8 = 0x10002000

.text           0x00000000     0x33cc
 FILL mask 0xff
 *(.isr_vector)
 .isr_vector    0x00000000       0xc0 ./build/cr_startup_lpc11.o
                0x00000000                g_pfnVectors
 *(.text.Reset_Handler .text.SystemInit)
                0x000002fc                . = 0x2fc
 *fill*         0x000000c0      0x23c ff
 *(.crp)
 *(.text*)
 .text          0x000002fc      0x144 ./build/switchcard.o
                0x000002fc                switch_handler
                0x00000368                setup
                0x000003d4                main
                0x00000414                debug_switches
 .text          0x00000440        0xe ./build/scandal_obligations.o
                0x00000440                scandal_user_do_first_run
                0x00000442                scandal_user_do_config
                0x00000446                scandal_user_handle_message
                0x0000044a                scandal_user_handle_command
 *fill*         0x0000044e        0x2 00
 .text          0x00000450      0x4f8 ./build/engine.o
                0x00000450                scandal_get_m
                0x00000460                scandal_get_b
                0x00000470                scandal_set_m
                0x00000488                scandal_set_b
                0x000004a0                scandal_register_in_channel_handler
                0x000004ac                register_standard_message_handler
                0x000004c0                scandal_get_in_channel_value
                0x000004d0                scandal_get_in_channel_rcvd_time
                0x000004e4                scandal_get_in_channel_time
                0x000004f8                scandal_in_channel_is_valid
                0x0000050e                scandal_get_in_channel
                0x00000520                scandal_get_addr
                0x0000052c                scandal_get_mac
                0x00000530                handle_std_message
                0x00000554                do_first_run
                0x00000594                scandal_init
                0x00000684                scandal_get_msg_type
                0x0000068c                scandal_get_msg_priority
                0x00000698                scandal_handle_channel
                0x00000724                scandal_handle_user_config
                0x0000076a                scandal_handle_config
                0x00000804                getconfig
                0x00000818                scandal_handle_reset
                0x00000832                scandal_handle_timesync
                0x0000087c                scandal_handle_command
                0x0000089a                handle_ext_message
                0x000008ec                handle_scandal
 .text          0x00000948       0x58 ./build/error.o
                0x00000948                scandal_get_last_scandal_error
                0x00000954                scandal_do_scandal_err
                0x0000096c                scandal_get_last_user_error
                0x00000978                scandal_do_user_err
                0x00000990                scandal_get_num_errors
                0x0000099c                do_fatal_error
 .text          0x000009a0       0x80 ./build/maths.o
                0x000009a0                scandal_div32
                0x000009c6                scandal_div64
 .text          0x00000a20      0x284 ./build/message.o
                0x00000a3c                scandal_send_channel_with_timestamp
                0x00000a8c                scandal_build_heartbeat_msg
                0x00000adc                scandal_send_heartbeat
                0x00000b0e                scandal_send_scandal_error
                0x00000b50                scandal_send_user_error
                0x00000b94                scandal_send_reset
                0x00000bbe                scandal_send_user_config
                0x00000c0c                scandal_send_timesync
                0x00000c4e                scandal_send_ws_drive_command
                0x00000c6a                scandal_send_ws_id
 .text          0x00000ca4      0x224 ./build/utils.o
                0x00000cd0                scandal_integrate_trapz32
                0x00000cf0                scandal_get_scaled_value
                0x00000d10                scandal_get_unscaled_value
                0x00000d38                scandal_send_scaled_channel
                0x00000d54                scandal_get_scaleaverage
                0x00000d80                scandal_send_scaleaverage_channel
                0x00000d9e                scandal_ms_delay
                0x00000dba                scandal_delay
                0x00000dd0                scandal_naive_delay
                0x00000de4                scandal_integrate_trapz64
                0x00000e22                scandal_get_scaleaverage64
                0x00000e86                scandal_get_scaled64_value
 .text          0x00000ec8      0x398 ./build/stdio.o
                0x00000ff6                UART_printf
                0x00001244                UART_sprintf
 .text          0x00001260      0x350 ./build/wavesculptor.o
                0x00001260                scandal_register_ws_base_callback
                0x00001280                scandal_register_ws_status_callback
                0x000012a4                scandal_register_ws_bus_callback
                0x000012c4                scandal_register_ws_velocity_callback
                0x000012e4                scandal_register_ws_temp_callback
                0x00001308                scandal_handle_ws_message
                0x000013b8                scandal_store_ws_message
                0x000014c0                check_device_valid
                0x000014f0                check_device_type
                0x00001520                send_ws_drive_commands
                0x00001578                scandal_send_ws_reset
 .text          0x000015b0      0x47c ./build/can.o
                0x000015c0                enqueue_message
                0x00001610                CAN_decode_packet
                0x00001658                CAN_set_up_filter
                0x000016c0                CAN_MessageProcess
                0x00001768                CAN_IRQHandler
                0x000017d8                CAN_Init
                0x00001844                buffer_free
                0x00001868                CAN_Send
                0x00001910                send_queued_messages
                0x00001950                init_can
                0x00001960                can_get_msg
                0x00001988                can_send_msg
                0x000019b8                can_register_id
                0x00001a20                can_baud_rate
                0x00001a24                can_poll
 .text          0x00001a2c      0x17c ./build/flash.o
                0x00001a2c                sc_init_eeprom
                0x00001a2e                sc_read_conf
                0x00001a3c                sc_write_conf
                0x00001ae0                sc_user_eeprom_read_block
                0x00001af2                sc_user_eeprom_write_block
 .text          0x00001ba8      0x284 ./build/uart.o
                0x00001ba8                UART_IRQHandler
                0x00001c40                UART_Init_11xx
                0x00001cfc                UART_Init
                0x00001d04                UART_Send
                0x00001d24                UART_putchar
                0x00001d36                UART_is_received
                0x00001d4c                UART_ReceiveByte
                0x00001d70                UART_readline
                0x00001d94                UART_init_double_buffer
                0x00001db8                UART_readline_double_buffer
                0x00001e14                UART_init_buffer
 .text          0x00001e2c      0x7c0 ./build/gpio.o
                0x00001e40                GPIO_SetFunction
                0x0000225c                GPIO_Init
                0x00002288                GPIO_SetInterrupt
                0x00002374                GPIO_IntEnable
                0x000023b4                GPIO_RegisterInterruptHandler
                0x000023ec                GPIO_IntDisable
                0x0000242c                GPIO_IntStatus
                0x00002474                PIOINT3_IRQHandler
                0x000024a0                PIOINT2_IRQHandler
                0x000024cc                PIOINT1_IRQHandler
                0x000024f8                PIOINT0_IRQHandler
                0x00002520                GPIO_IntClear
                0x00002560                GPIO_SetValue
                0x00002574                GPIO_GetValue
                0x00002588                GPIO_ToggleValue
                0x000025a4                GPIO_SetDir
 .text          0x000025ec      0x330 ./build/timer.o
                0x000025ec                TIMER32_0_IRQHandler
                0x000025f8                TIMER32_1_IRQHandler
                0x00002604                enable_timer32
                0x00002620                disable_timer32
                0x0000263c                reset_timer32
                0x0000265c                timer32_ioconfig
                0x0000277c                init_timer32
                0x00002864                setMatch_timer32PWM
                0x0000289c                sc_init_timer
                0x00002904                sc_set_timer
                0x00002910                sc_get_timer
 .text          0x0000291c       0x7c ./build/wdt.o
                0x0000291c                WDT_Init
                0x00002988                WDT_Feed
 .text          0x00002998       0x18 ./build/system.o
                0x00002998                system_reset
 .text          0x000029b0      0x144 ./build/system_LPC11xx.o
                0x000029b0                SystemCoreClockUpdate
                0x00002a5c                SystemInit
 .text          0x00002af4      0x210 ./build/i2c.o
                0x00002af4                I2C_IRQHandler
                0x00002c10                I2CStart
                0x00002c3c                I2CStop
                0x00002c54                I2CInit
                0x00002cbc                I2CEngine
 .text          0x00002d04       0x5c ./build/cr_startup_lpc11.o
                0x00002d04                NMI_Handler
                0x00002d08                HardFault_Handler
                0x00002d0c                SVCall_Handler
                0x00002d10                PendSV_Handler
                0x00002d14                SysTick_Handler
                0x00002d18                ResetISR
                0x00002d5c                TIMER16_0_IRQHandler
                0x00002d5c                IntDefaultHandler
                0x00002d5c                SSP0_IRQHandler
                0x00002d5c                TIMER16_1_IRQHandler
                0x00002d5c                ADC_IRQHandler
                0x00002d5c                SSP1_IRQHandler
                0x00002d5c                BOD_IRQHandler
                0x00002d5c                WAKEUP_IRQHandler
                0x00002d5c                WDT_IRQHandler
 .text.memcpy   0x00002d60        0x8 /usr/local/bin/tools/bin/../lib/gcc/arm-none-eabi/4.5.1/../../../../arm-none-eabi/lib/armv6-m/libcr_c.a(memcpy.o)
                0x00002d60                memcpy
 .text.memset   0x00002d68        0x8 /usr/local/bin/tools/bin/../lib/gcc/arm-none-eabi/4.5.1/../../../../arm-none-eabi/lib/armv6-m/libcr_c.a(memset.o)
                0x00002d68                memset
 .text.__aeabi_division_idivmod
                0x00002d70        0x6 /usr/local/bin/tools/bin/../lib/gcc/arm-none-eabi/4.5.1/armv6-m/libcr_eabihelpers.a(division.o)
                0x00002d70                __aeabi_idiv
                0x00002d70                __aeabi_idivmod
 .text.__aeabi_division_uidivmod
                0x00002d76       0x72 /usr/local/bin/tools/bin/../lib/gcc/arm-none-eabi/4.5.1/armv6-m/libcr_eabihelpers.a(division.o)
                0x00002d76                __aeabi_uidiv
                0x00002d76                __aeabi_uidivmod
 .text.__aeabi_division_uldivmod
                0x00002de8       0x5a /usr/local/bin/tools/bin/../lib/gcc/arm-none-eabi/4.5.1/armv6-m/libcr_eabihelpers.a(division.o)
                0x00002de8                __aeabi_uldivmod
 .text.__aeabi_division_ldivmod
                0x00002e42       0x32 /usr/local/bin/tools/bin/../lib/gcc/arm-none-eabi/4.5.1/armv6-m/libcr_eabihelpers.a(division.o)
                0x00002e42                __aeabi_ldivmod
 .text.__aeabi_division_idiv0
                0x00002e74        0x2 /usr/local/bin/tools/bin/../lib/gcc/arm-none-eabi/4.5.1/armv6-m/libcr_eabihelpers.a(division.o)
                0x00002e74                __aeabi_idiv0
 *fill*         0x00002e76        0x2 00
 .text.__aeabi_dmul
                0x00002e78      0x190 /usr/local/bin/tools/bin/../lib/gcc/arm-none-eabi/4.5.1/armv6-m/libcr_eabihelpers.a(double.o)
                0x00002e78                __aeabi_dmul
 .text.__aeabi_d2f
                0x00003008       0x5c /usr/local/bin/tools/bin/../lib/gcc/arm-none-eabi/4.5.1/armv6-m/libcr_eabihelpers.a(double.o)
                0x00003008                __aeabi_d2f
 .text.__aeabi_d2iz
                0x00003064       0x4c /usr/local/bin/tools/bin/../lib/gcc/arm-none-eabi/4.5.1/armv6-m/libcr_eabihelpers.a(double.o)
                0x00003064                __aeabi_d2iz
 .text.__bhs_ui2d
                0x000030b0       0x66 /usr/local/bin/tools/bin/../lib/gcc/arm-none-eabi/4.5.1/armv6-m/libcr_eabihelpers.a(double.o)
                0x000030b0                __bhs_ui2d
 .text.__aeabi_i2d
                0x00003116       0x18 /usr/local/bin/tools/bin/../lib/gcc/arm-none-eabi/4.5.1/armv6-m/libcr_eabihelpers.a(double.o)
                0x00003116                __aeabi_i2d
 *fill*         0x0000312e        0x2 00
 .text.__aeabi_dcmplt
                0x00003130       0x5c /usr/local/bin/tools/bin/../lib/gcc/arm-none-eabi/4.5.1/armv6-m/libcr_eabihelpers.a(double.o)
                0x00003130                __aeabi_dcmplt
 .text.__aeabi_f2d
                0x0000318c       0x3c /usr/local/bin/tools/bin/../lib/gcc/arm-none-eabi/4.5.1/armv6-m/libcr_eabihelpers.a(float.o)
                0x0000318c                __aeabi_f2d
 .text.__aeabi_llong_lmul
                0x000031c8       0x2e /usr/local/bin/tools/bin/../lib/gcc/arm-none-eabi/4.5.1/armv6-m/libcr_eabihelpers.a(llong.o)
                0x000031c8                __aeabi_lmul
 .text.__aeabi_memcpy
                0x000031f6       0x2c /usr/local/bin/tools/bin/../lib/gcc/arm-none-eabi/4.5.1/armv6-m/libcr_eabihelpers.a(memcpy.o)
                0x000031f6                __aeabi_memcpy
                0x000031f6                __aeabi_memcpy4
                0x000031f6                __aeabi_memcpy8
 .text.__aeabi_memset_lowlevel
                0x00003222       0x2a /usr/local/bin/tools/bin/../lib/gcc/arm-none-eabi/4.5.1/armv6-m/libcr_eabihelpers.a(memcpy.o)
                0x00003222                __aeabi_lowlevel_memset
 .text.__gnu_thumb1_case_uqi
                0x0000324c       0x10 /usr/local/bin/tools/bin/../lib/gcc/arm-none-eabi/4.5.1/armv6-m/libcr_eabihelpers.a(thumb1_switch_helpers.o)
                0x0000324c                __gnu_thumb1_case_uqi
 .text.__gnu_thumb1_case_uhi
                0x0000325c       0x10 /usr/local/bin/tools/bin/../lib/gcc/arm-none-eabi/4.5.1/armv6-m/libcr_eabihelpers.a(thumb1_switch_helpers.o)
                0x0000325c                __gnu_thumb1_case_uhi
 *(.rodata*)
 .rodata.str1.1
                0x0000326c       0xe2 ./build/switchcard.o
 .rodata.str1.1
                0x0000334e        0xc ./build/stdio.o
 .rodata.str1.1
                0x0000335a       0x21 ./build/wavesculptor.o
 *fill*         0x0000337b        0x1 00
 .rodata        0x0000337c       0x10 ./build/gpio.o
 .rodata        0x0000338c       0x40 ./build/system_LPC11xx.o

.glue_7         0x000033cc        0x0
 .glue_7        0x00000000        0x0 linker stubs

.glue_7t        0x000033cc        0x0
 .glue_7t       0x00000000        0x0 linker stubs

.vfp11_veneer   0x000033cc        0x0
 .vfp11_veneer  0x00000000        0x0 linker stubs

.v4_bx          0x000033cc        0x0
 .v4_bx         0x00000000        0x0 linker stubs

.ARM.extab
 *(.ARM.extab* .gnu.linkonce.armextab.*)
                0x000033cc                __exidx_start = .

.ARM.exidx
 *(.ARM.exidx* .gnu.linkonce.armexidx.*)
                0x000033cc                __exidx_end = .
                0x000033cc                _etext = .

.data           0x10000100        0x8 load address 0x000033cc
                0x10000100                _data = .
 *(vtable)
 *(.data*)
 .data          0x10000100        0x1 ./build/uart.o
                0x10000100                UARTTxEmpty
 *fill*         0x10000101        0x3 00
 .data          0x10000104        0x4 ./build/system_LPC11xx.o
                0x10000104                SystemCoreClock
                0x10000108                _edata = .

.bss            0x10000108      0x6f8 load address 0x000033d4
                0x10000108                _bss = .
 *(.bss*)
 .bss           0x10000108        0x4 ./build/engine.o
                0x10000108                user_std_msg_handler_set
 .bss           0x1000010c        0xc ./build/error.o
                0x1000010c                last_scandal_error
                0x10000110                num_errors
                0x10000114                last_user_error
 .bss           0x10000118       0x14 ./build/wavesculptor.o
                0x10000118                ws_base_handler_cb
                0x1000011c                ws_status_handler_cb
                0x10000120                ws_bus_handler_cb
                0x10000124                ws_velocity_handler_cb
                0x10000128                ws_temp_handler_cb
 .bss           0x1000012c        0xc ./build/can.o
                0x1000012c                EWarnCnt
                0x10000130                BOffCnt
                0x10000134                EPassCnt
 .bss           0x10000138        0xc ./build/uart.o
                0x1000013c                UARTCount
 .bss           0x10000144       0xc0 ./build/gpio.o
 .bss           0x10000204       0x18 ./build/i2c.o
                0x10000204                timeout
                0x10000208                WrIndex
                0x1000020c                RdIndex
                0x10000210                I2CMasterState
                0x10000214                I2CSlaveState
                0x10000218                I2CCount
 *(COMMON)
 *fill*         0x1000021c        0x4 00
 COMMON         0x10000220       0x84 ./build/engine.o
                0x10000220                heartbeat_timer
                0x10000224                user_std_msg_handler
                0x10000228                timesync_offset
                0x10000230                my_config
                0x10000264                in_channels
                0x10000294                in_channel_handlers
 COMMON         0x100002a4      0x4c8 ./build/can.o
                0x100002a4                tx_buf_start
                0x100002a5                CANRxDone
                0x100002c5                recv_buf_used
                0x100002e8                CAN_rxbuf
                0x10000668                tx_num_msgs
                0x1000066c                CAN_txbuf
 COMMON         0x1000076c        0x8 ./build/uart.o
                0x1000076c                UARTBuffer
                0x10000770                UARTStatus
 COMMON         0x10000774       0x8c ./build/i2c.o
                0x10000774                I2CReadLength
                0x10000778                I2CSlaveBuffer
                0x100007b8                I2CMode
                0x100007bc                I2CMasterBuffer
                0x100007fc                I2CWriteLength
                0x10000800                _ebss = .

.cr_heap        0x10000800        0x0
                0x10000800                end = .
                0x10000800                _pvHeapStart = .
                0x10002000                _vRamTop = __top_RamLoc8
                0x10002000                _vStackTop = _vRamTop
OUTPUT(./build/main.axf elf32-littlearm)

.comment        0x00000000       0x2a
 .comment       0x00000000       0x2a ./build/switchcard.o
                                 0x2b (size before relaxing)
 .comment       0x00000000       0x2b ./build/scandal_obligations.o
 .comment       0x00000000       0x2b ./build/engine.o
 .comment       0x00000000       0x2b ./build/error.o
 .comment       0x00000000       0x2b ./build/manager.o
 .comment       0x00000000       0x2b ./build/maths.o
 .comment       0x00000000       0x2b ./build/message.o
 .comment       0x00000000       0x2b ./build/utils.o
 .comment       0x00000000       0x2b ./build/stdio.o
 .comment       0x00000000       0x2b ./build/leds.o
 .comment       0x00000000       0x2b ./build/wavesculptor.o
 .comment       0x00000000       0x2b ./build/can.o
 .comment       0x00000000       0x2b ./build/flash.o
 .comment       0x00000000       0x2b ./build/uart.o
 .comment       0x00000000       0x2b ./build/gpio.o
 .comment       0x00000000       0x2b ./build/timer.o
 .comment       0x00000000       0x2b ./build/wdt.o
 .comment       0x00000000       0x2b ./build/system.o
 .comment       0x00000000       0x2b ./build/core_cm0.o
 .comment       0x00000000       0x2b ./build/system_LPC11xx.o
 .comment       0x00000000       0x2b ./build/i2c.o
 .comment       0x00000000       0x2b ./build/ssp.o
 .comment       0x00000000       0x2b ./build/cr_startup_lpc11.o
 .comment       0x00000000       0x2b /usr/local/bin/tools/bin/../lib/gcc/arm-none-eabi/4.5.1/../../../../arm-none-eabi/lib/armv6-m/libcr_c.a(memcpy.o)
 .comment       0x00000000       0x2b /usr/local/bin/tools/bin/../lib/gcc/arm-none-eabi/4.5.1/../../../../arm-none-eabi/lib/armv6-m/libcr_c.a(memset.o)
 .comment       0x00000000       0x2b /usr/local/bin/tools/bin/../lib/gcc/arm-none-eabi/4.5.1/armv6-m/libcr_eabihelpers.a(double.o)
 .comment       0x00000000       0x2b /usr/local/bin/tools/bin/../lib/gcc/arm-none-eabi/4.5.1/armv6-m/libcr_eabihelpers.a(float.o)

.ARM.attributes
                0x00000000       0x31
 .ARM.attributes
                0x00000000       0x33 ./build/switchcard.o
 .ARM.attributes
                0x00000033       0x33 ./build/scandal_obligations.o
 .ARM.attributes
                0x00000066       0x33 ./build/engine.o
 .ARM.attributes
                0x00000099       0x33 ./build/error.o
 .ARM.attributes
                0x000000cc       0x33 ./build/manager.o
 .ARM.attributes
                0x000000ff       0x33 ./build/maths.o
 .ARM.attributes
                0x00000132       0x33 ./build/message.o
 .ARM.attributes
                0x00000165       0x33 ./build/utils.o
 .ARM.attributes
                0x00000198       0x33 ./build/stdio.o
 .ARM.attributes
                0x000001cb       0x33 ./build/leds.o
 .ARM.attributes
                0x000001fe       0x33 ./build/wavesculptor.o
 .ARM.attributes
                0x00000231       0x33 ./build/can.o
 .ARM.attributes
                0x00000264       0x33 ./build/flash.o
 .ARM.attributes
                0x00000297       0x33 ./build/uart.o
 .ARM.attributes
                0x000002ca       0x33 ./build/gpio.o
 .ARM.attributes
                0x000002fd       0x33 ./build/timer.o
 .ARM.attributes
                0x00000330       0x33 ./build/wdt.o
 .ARM.attributes
                0x00000363       0x33 ./build/system.o
 .ARM.attributes
                0x00000396       0x33 ./build/core_cm0.o
 .ARM.attributes
                0x000003c9       0x33 ./build/system_LPC11xx.o
 .ARM.attributes
                0x000003fc       0x33 ./build/i2c.o
 .ARM.attributes
                0x0000042f       0x33 ./build/ssp.o
 .ARM.attributes
                0x00000462       0x33 ./build/cr_startup_lpc11.o
 .ARM.attributes
                0x00000495       0x33 /usr/local/bin/tools/bin/../lib/gcc/arm-none-eabi/4.5.1/../../../../arm-none-eabi/lib/armv6-m/libcr_c.a(memcpy.o)
 .ARM.attributes
                0x000004c8       0x33 /usr/local/bin/tools/bin/../lib/gcc/arm-none-eabi/4.5.1/../../../../arm-none-eabi/lib/armv6-m/libcr_c.a(memset.o)
 .ARM.attributes
                0x000004fb       0x23 /usr/local/bin/tools/bin/../lib/gcc/arm-none-eabi/4.5.1/armv6-m/libcr_eabihelpers.a(division.o)
 .ARM.attributes
                0x0000051e       0x33 /usr/local/bin/tools/bin/../lib/gcc/arm-none-eabi/4.5.1/armv6-m/libcr_eabihelpers.a(double.o)
 .ARM.attributes
                0x00000551       0x33 /usr/local/bin/tools/bin/../lib/gcc/arm-none-eabi/4.5.1/armv6-m/libcr_eabihelpers.a(float.o)
 .ARM.attributes
                0x00000584       0x23 /usr/local/bin/tools/bin/../lib/gcc/arm-none-eabi/4.5.1/armv6-m/libcr_eabihelpers.a(llong.o)
 .ARM.attributes
                0x000005a7       0x23 /usr/local/bin/tools/bin/../lib/gcc/arm-none-eabi/4.5.1/armv6-m/libcr_eabihelpers.a(memcpy.o)
 .ARM.attributes
                0x000005ca       0x23 /usr/local/bin/tools/bin/../lib/gcc/arm-none-eabi/4.5.1/armv6-m/libcr_eabihelpers.a(thumb1_switch_helpers.o)
